:100000000C9458010C9480010C9480010C94800194
:100010000C9480010C9480010C9480010C9480015C
:100020000C9480010C9480010C9484090C94F309C5
:100030000C9480010C9480010C9480010C9480013C
:100040000C9480010C9480010C9480010C9480012C
:100050000C9480010C9480010C9480010C94250C6C
:100060000C9480010C9480010C9480010C9480010C
:100070000C9480010C9480010C9480010C948001FC
:100080000C9480010C9480010C9480010C948001EC
:100090000C9480010C9480010C9480010C948001DC
:1000A0000C9480010C9480010C94800100407A1023
:1000B000F35A00A0724E18090010A5D4E80000E819
:1000C0007648170000E40B54020000CA9A3B000077
:1000D00000E1F505000080969800000040420F0006
:1000E0000000A08601000000102700000000E803C7
:1000F000000000006400000000000A000000000092
:100100000100000000002C76D888DC674F0823DF50
:10011000C1DFAE59E1B1B796E5E3E453C63AE65123
:10012000997696E8E6C28426EB898C9B62ED407C4A
:100130006FFCEFBC9C9F40F2BAA56FA5F490055AE6
:100140002AF75C936B6CF9676DC11BFCE0E40D470B
:10015000FEF520E6B500D0ED902E0300943577052E
:100160000080841E080000204E0A000000C80C33E6
:100170003333330F986E12831141EF8D2114893B75
:10018000E65516CFFEE6DB18D1844B381BF77C1DF5
:10019000901DA4BBE424203284725E228100C9F148
:1001A00024ECA1E53D27070605040100080A0B0C15
:1001B0000D09080B000202020100090400000102FF
:1001C000020000052400100105240101010424029D
:1001D00006052406000107058103100040090401FB
:1001E00000020A0000000705020240000007058324
:1001F000024000000403090412010002EF02014062
:100200004123368000010102030141726475696E69
:100210006F204C4C430041726475696E6F204C65D1
:100220006F6E6172646F00000000002300260029D9
:10023000002C002F0000000000240027002A002DC1
:1002400000300000000000250028002B002E0031A7
:10025000000404040404030405020202020403026D
:10026000020202060606060606040402020204044E
:1002700004080201104080401020408040800802A5
:100280000401804020100201108010204040200016
:1002900000000200090F0000030401000C00000030
:1002A00000000000000000000000000000006F0CD3
:1002B00011241FBECFEFDAE0DEBFCDBF11E0A0E01A
:1002C000B1E0ECEBF0E302C005900D92AE34B10763
:1002D000D9F722E0AEE4B1E001C01D92A233B2072B
:1002E000E1F711E0C8E5D1E004C02197FE010E94CA
:1002F0005016C735D107C9F70E94F90E0C945C1847
:100300000C940000CF92DF92EF92FF920F931F9315
:10031000CF93DF93D901E8016A01F901421753072E
:1003200014F06901FA01882309F440C0CB016C156F
:100330007D050CF4C6019F018E179F070CF49C01EC
:10034000A417B50734F4CF01821B930B9C012C0D2D
:100350003D1D0D2C000CEE08FF08032E000C440B75
:10036000550B2C193D094E095F09AEEFBFEF0E94F6
:10037000B4149F01FF0F440B550B2C193D094E0976
:100380005F090E949514DA01C9018F5F9F47A10997
:10039000B1098883998382E090E0DF91CF911F912A
:1003A0000F91FF90EF90DF90CF90089590E080E064
:1003B000F4CFCF93DF9390E0FC01E059FD4F2491FF
:1003C0008F5A9D4FFC0184918823C1F090E0880FE3
:1003D000991FFC01EB5CFD4FC591D491FC01ED5BD5
:1003E000FD4FA591B4919FB7F8948881E22FE095D5
:1003F0008E2388838C91E823EC939FBFDF91CF916C
:100400000895FC0180918D01882311F13FB7F89484
:1004100082E08093E9002091F200822F90E018168C
:10042000190614F481E090E0882339F0289844E616
:1004300040938C014091F1004083222339F02091B8
:10044000F200211103C02BE62093E8003FBF08957E
:100450008FEF9FEF089540917E0150917F01209191
:100460007C0130917D0142175307B4F49091E8006C
:100470009570E1F39091E80092FD19C08093F1002E
:1004800080917E0190917F0101968F739927892B2E
:1004900019F48EEF8093E80080917E0190917F01A6
:1004A000019690937F0180937E0181E0089580E022
:1004B0000895EF92FF920F931F93CF93DF93F82E3F
:1004C000192FE62E042F81E0860F880F0E942B0241
:1004D00083E00E942B02CF2DD12FEC0EFD2EF11CBC
:1004E000CE15DF05B9F007FF13C0FE0184910E940D
:1004F0002B02182F80E00E942B028123219681116C
:10050000EFCFDF91CF911F910F91FF90EF90089562
:100510008881EDCF81E0F5CFDF92EF92FF920F93CC
:100520001F93CF93DF93D82E8A01EB017B01E40E5A
:10053000F51ECE15DF0559F0D7FE12C0FE018491DD
:100540000E942B0221968111F4CF0FEF1FEFC801FB
:10055000DF91CF911F910F91FF90EF90DF90089561
:100560008881EECF2FB7F89487708093E90090913F
:10057000E800892F807295FF04C09091F20080E41A
:10058000891B2FBF0895615030F02091F100FC01CC
:1005900020830196F8CF289884E680938C010895F3
:1005A0008091740181110DC082E08093700184E01C
:1005B00080937101109273011092720181E0809317
:1005C000740180E791E008950F931F93CF93DF9319
:1005D0001F92CDB7DEB782E0898342E450E062EB40
:1005E00071E080E80E948C020E94D002DC01129629
:1005F0000D911C910115110589F0D801ED91FC9127
:100600000280F381E02DBE016F5F7F4FC801099525
:1006100097FD04C0F80100851185ECCF89810F900A
:10062000DF91CF911F910F910895CF93DF931F9288
:10063000CDB7DEB76983DC01ED91FC910280F381D7
:10064000E02D41E050E0BE016F5F7F4F09950F90B4
:10065000DF91CF91089583E08093E9008091F200CB
:10066000882319F08AE38093E800089583E00E94CC
:10067000B20290E00895CF93DF931F92CDB7DEB71B
:10068000FC018485958597FD08C02FEF3FEF3587E6
:1006900024870F90DF91CF910895CE0101960E949B
:1006A0000102019719F4898190E0F3CF8FEF9FEF5A
:1006B000F0CF0F931F93CF93DF931F92CDB7DEB789
:1006C0008C01FC018485958597FF0BC0CE010196B6
:1006D0000E940102019771F4898190E0F8019587E9
:1006E0008487F801848595850F90DF91CF911F91C4
:1006F0000F9108958FEF9FEFF1CFFC0184859585D1
:1007000097FD0BC09FB7F89482E08093E900809139
:10071000F2009FBF90E0019608959FB7F89482E0A1
:100720008093E9008091F2009FBF90E0089581508E
:100730008F3008F047C0E82FF0E0EF55FC4F0C94E5
:100740005016BE03C203B003B603BA03E203E203CA
:10075000E203C503CB03CF03D303D903E203DD03D5
:10076000809180008F778093800008958091800031
:100770008F7DF9CF80918000877FF5CF84B58F770B
:1007800084BD089584B58F7DFBCF809190008F77D5
:10079000809390000895809190008F7DF9CF809193
:1007A0009000877FF5CF8091C0008F778093C00045
:1007B00008958091C0008F7DF9CF8091C200877F1E
:1007C0008093C20008951F93CF93DF93E1E9F2E095
:1007D0009491E2E7F2E0D491E3E5F2E0C491CC2316
:1007E000B9F0182F992319F0892F0E949703EC2F45
:1007F000F0E0EE0FFF1FED5BFD4FA591B4918FB7B9
:10080000F894EC91111108C0D095DE23DC938FBFD2
:10081000DF91CF911F910895DE2BF8CF823108F040
:100820008251E82FF0E0EA55FE4FE49190917B0071
:100830008E2F880F880F80729F7D892B80937B007D
:10084000E770E064E0937C0080917A00806480939C
:100850007A0080917A0086FDFCCF8091780090919B
:10086000790008953FB7F89480916C0190916D01E3
:10087000A0916E01B0916F0126B5A89B05C02F3FD6
:1008800019F00196A11DB11D3FBFBA2FA92F982FB6
:100890008827BC01CD01620F711D811D911D42E0B1
:1008A000660F771F881F991F4A95D1F708958F9279
:1008B0009F92AF92BF92CF92DF92EF92FF924B0145
:1008C0005C010E9432046B017C010E9432046C19AD
:1008D0007D098E099F09683E734081059105A8F343
:1008E00021E0821A9108A108B10888EEC80E83E0C1
:1008F000D81EE11CF11C81149104A104B10429F754
:10090000FF90EF90DF90CF90BF90AF909F908F902F
:1009100008957F928F929F92AF92BF92CF92DF9273
:10092000EF92FF920F931F93CF93DF93C82E8B010B
:100930007A0180918D01811110C08FEF9FEFDF91BF
:10094000CF911F910F91FF90EF90DF90CF90BF90CC
:10095000AF909F908F907F9008958091820180FF4B
:1009600005C08091E00082608093E000CE2DDF2DF5
:10097000D12C8AEFB82E8C2D8770982E8C2D8072FA
:10098000882E8C2D8074782E9AE3A92E209719F446
:10099000DD2009F452C08C2D0E94B20281110AC0E0
:1009A000BA94BB2051F261E070E080E090E00E94D8
:1009B0005704ECCF8C171D0611F00CF08C2F9FB74D
:1009C000F8949092E9002091E80025FD02C09FBFB5
:1009D000DDCF282F30E0C21BD30B882029F08150B7
:1009E000A0F01092F100FBCFF801C7FC0AC08150C3
:1009F00050F041914093F100FACF44914093F100BF
:100A000031968150D0F7020F131FDD2021F0A09204
:100A1000E800D12CDCCF8091E80085FD07C0A092D2
:100A2000E800DD24D394209791F2F3CF209779F654
:100A3000772069F2A092E800CACF5D9884E680939F
:100A40008101C7017CCFCF93DF93EC01809112012C
:100A5000882331F083E00E9489041816190634F0C7
:100A600081E090E09B838A8380E090E0DF91CF91EA
:100A70000895DC01FB0112962C91129784819581D7
:100A80002817190641F491818081813A31F49D7FC4
:100A900081E0913009F080E008958132E1F79B30E8
:100AA00029F482811F968C9381E008959A3099F7FA
:100AB000828150968C93F8CFDC01FB0188E480831F
:100AC00089E4818384E482831D969C911D979F70A5
:100AD0009F5B93831D968D919C9124E096958795BD
:100AE0002A95E1F78F708F5B848385E00895EF92FC
:100AF000FF920F931F93CF93DF93FB012081213847
:100B000089F52381223271F5DC0112964C91248102
:100B100035814217130631F58C01FC01C385D4855C
:100B2000F12CE12C209791F04C815D816A817B81D1
:100B30008E81811180E80E948C028F3F980759F0C6
:100B4000E80EF91E0990D881C02DECCF81E0D801C4
:100B50001F968C93C701DF91CF911F910F91FF904A
:100B6000EF90089590E080E0F6CFCF93DF93CDB77C
:100B7000DEB769970FB6F894DEBF0FBECDBFFC019C
:100B8000DB018C918F5F8C939E012D5F3F4F8DE039
:100B9000D9011D928A95E9F729E0298384E08A83A7
:100BA00091E09D8383E08E832A8721E22B879C87B7
:100BB0009D879F8722E2288B27E02B8B25E02C8BBB
:100BC0008E8B20E430E0388F2F8B998F82818B833E
:100BD00095858685998B8A8B838180688D8B49E189
:100BE00050E0BE016F5F7F4F80E00E948C026996EB
:100BF0000FB6F894DEBF0FBECDBFDF91CF91089541
:100C0000CF93DF9380915F01811167C081E0809372
:100C100052018093530128E531E030935501209330
:100C2000540110925701109256012DE131E030939A
:100C30004F0120934E0110925A01109259011092C7
:100C40005C0110925B0180935D0180935E0181ECF9
:100C5000809358010E94D002FC0181819091520141
:100C6000482F490F5527551F483051059CF5A28143
:100C7000B381109709F52EE431E03383228320817C
:100C8000209350018093510180915301820F808302
:100C900020915401A22FB09155018A2F821B8917F0
:100CA000C8F481813D91C82FD0E0C050DF4F388318
:100CB0008F5F8183F2CFD90118962D913C911997BE
:100CC00021153105C1F72EE431E019963C932E939E
:100CD0001897D5CF81E080935F018EE491E0DF919A
:100CE000CF910895CF93DF93C4E1D0E060E971E044
:100CF00080E090E00E94570480E00E94E30360E9F6
:100D000071E080E090E00E94570481E00E94E303DC
:100D1000219761F7DF91CF910895FC0144815581BE
:100D2000608171818EE891E00C9423058F929F92EF
:100D3000AF92BF92CF92DF92EF92FF920F931F93E9
:100D4000CF93DF93CDB7DEB7ADB6BEB680912D029F
:100D50002DB73EB7281B31090FB6F8943EBF0FBE22
:100D60002DBF8DB79EB701966C01E090FC01F12C70
:100D70008091F8019091F901D601FC019F01281B97
:100D8000390B2E153F051CF421912D93F7CF80913F
:100D9000FD01882359F18091F4019091F50128E03B
:100DA00097FD09C068E671E00E943C166DE270E0B4
:100DB0000E943C16262F8091F6019091F70168E081
:100DC00097FD08C068E671E00E943C166DE270E095
:100DD0000E943C16F601EE0DFF1D90E1699FB001E7
:100DE0001124262B2083F70131967F0186010E0DF9
:100DF0001F1D209102023091030240910002509188
:100E000001026091DE017091DF018091FE0181702D
:100E10000E948201E80EF91E86010E0D1F1D209111
:100E20000602309107024091040250910502609140
:100E3000E0017091E1018091FE01869581700E9430
:100E40008201E80EF91E86010E0D1F1D20910A0277
:100E500030910B0240910802509109026091E20129
:100E60007091E3018091FE0182FB882780F90E9446
:100E70008201E80EF91E86010E0D1F1D20910E0243
:100E800030910F0240910C0250910D026091E401EB
:100E90007091E5018091FE0183FB882780F90E9413
:100EA0008201E80EF91E86010E0D1F1D209112020F
:100EB0003091130240911002509111026091E601AD
:100EC0007091E7018091FE01829581700E948201FC
:100ED000E80EF91E86010E0D1F1D2091160230919D
:100EE000170240911402509115026091E80170912F
:100EF000E9018091FE0185FB882780F90E9482012B
:100F0000E80EF91E86010E0D1F1D20911A02309168
:100F10001B0240911802509119026091EC017091EE
:100F2000ED018091FF0181700E948201E80EF91E9F
:100F300086010E0D1F1D20911E0230911F0240914F
:100F40001C0250911D026091EA017091EB018091A9
:100F5000FF01869581700E948201E80EF91E8601CC
:100F60000E0D1F1D2091220230912302409120027C
:100F7000509121026091EE017091EF018091FF018B
:100F800082FB882780F90E948201E80EF91E860103
:100F90000E0D1F1D20912602309127024091240240
:100FA000509125026091F0017091F1018091FF0153
:100FB00083FB882780F90E9482018E0D9F1D860188
:100FC000080F191F20912A0230912B02409128020C
:100FD000509129026091F2017091F3018091FF011B
:100FE000829581700E9482010E9400064C0140910E
:100FF0002D0280912C0250E07A01FFEFEF1AFF0AD8
:101000002DB73EB72E193F090FB6F8943EBF0FBE5D
:101010002DBF0DB71EB70F5F1F4FEDB7FEB7818312
:10102000B601C80101960E944C18F4018381A70102
:10103000B80180640E9489040FB6F894BEBE0FBE4A
:10104000ADBEDF91CF911F910F91FF90EF90DF9098
:10105000CF90BF90AF909F908F9008950F931F9364
:10106000CF93DF93EC0188819981009759F02A8111
:101070003B812617370730F081E0DF91CF911F9138
:101080000F9108958B016F5F7F4F0E948F1700971C
:1010900059F0998388831B830A832C813D81232BFC
:1010A00059F7FC011082E8CF80E0E7CFEF92FF9282
:1010B0000F931F93CF93DF936115710541F480E087
:1010C000DF91CF911F910F91FF90EF9008954115FF
:1010D0005105B1F07B01EC010C811D81040F151F3E
:1010E000B8010E942E08882351F3288139818C8110
:1010F0009D81B701820F931F0E9455181D830C8399
:1011000081E0DECFCF93DF93EC0188819981009756
:1011100011F00E940617198218821D821C821B8200
:101120001A82DF91CF910895CF93DF93EC01FB01F9
:1011300001900020E9F73197AF01461B570B0E9441
:101140005608811103C0CE010E948208CE01DF91B2
:10115000CF910895CF93DF93EC01FB01448155813A
:10116000608171810E945608811103C0CE010E94E6
:101170008208CE01DF91CF910895EF92FF920F93F5
:101180001F93CF93DF93EC017B018A01BA010E9488
:101190002E0881110BC0CE010E948208CE01DF9182
:1011A000CF911F910F91FF90EF9008951D830C83B5
:1011B000B701888199810E945518F0CFEF92FF9274
:1011C0000F931F93CF93DF93CDB7DEB7A1970FB6E1
:1011D000F894DEBF0FBECDBF7C01CB01BA01F70191
:1011E0001182108213821282158214828E010F5F87
:1011F0001F4F22E044E00E94E7100097C9F0FC0175
:1012000001900020E9F73197AF01481B590BBC0151
:10121000C7010E94BD08A1960FB6F894DEBF0FBEAD
:10122000CDBFDF91CF911F910F91FF90EF90089567
:10123000C7010E948208EFCFEF92FF920F931F9396
:10124000CF93DF93CDB7DEB762970FB6F894DEBFCA
:101250000FBECDBF8C01CB01F80111821082138229
:101260001282158214824AE09E012F5F3F4F79015E
:10127000B9010E940511F70101900020E9F73197AB
:10128000AF014E195F09B701C8010E94BD086296FF
:101290000FB6F894DEBF0FBECDBFDF91CF911F9187
:1012A0000F91FF90EF900895FC011182108213823C
:1012B000128215821482FB0101900020E9F7319718
:1012C000AF01461B570B0C94BD08FC018081918136
:1012D0000C940617FB01DC0111961C921E921396CA
:1012E0001C921E92129715961C921E9214978617A6
:1012F000970749F0608171816115710521F0448182
:1013000055810C94BD0808951F920F920FB60F924D
:1013100011248F939F938091E1009091E100937F3E
:101320009093E10083FF0FC01092E90091E0909349
:10133000EB001092EC0092E39093ED0010928D017F
:1013400098E09093F00082FF22C093E09093E90030
:101350009091F200992319F09AE39093E80090910C
:101360008101992341F090918101915090938101E5
:10137000911101C05D9A90918C01992341F0909157
:101380008C01915090938C01911101C0289A84FF97
:1013900018C08091E2008E7E81608093E20080918F
:1013A000E1008F7E8093E100809182018E7E8061DA
:1013B000809382019F918F910F900FBE0F901F908D
:1013C000189580FFF7CF8091E2008E7E8061809338
:1013D000E2008091E1008E7E8093E10080918201A5
:1013E0008E7E8160E5CF1F920F920FB60F9211246F
:1013F000CF92DF92EF92FF920F931F932F933F9321
:101400004F935F936F937F938F939F93AF93BF930C
:10141000EF93FF93CF93DF93CDB7DEB76C97DEBF2B
:10142000CDBF1092E9008091E80083FF25C068E0FD
:10143000CE0145960E94C30282EF8093E8008D8919
:1014400087FF39C09091E80090FFFCCF982F9076ED
:1014500009F034C19E894F89588D2F89F88C9111DC
:1014600031C0803861F5809183018093F100109242
:10147000F1008EEF8093E8006C960FB6F894DEBF13
:101480000FBECDBFDF91CF91FF91EF91BF91AF9193
:101490009F918F917F916F915F914F913F912F918C
:1014A0001F910F91FF90EF90DF90CF900F900FBEA4
:1014B0000F901F9018959EEF9093E800C7CF109261
:1014C000F100D5CF913059F48111D3CF413051057E
:1014D00081F6809183018D7F80938301CACF933001
:1014E00049F48111C6CF4130510519F6809183012D
:1014F0008260F2CF953041F48091E80080FFFCCF0C
:1015000020682093E300B5CF963009F0A9C00B8D79
:101510001C8D22E01092E90010927F0110927E0152
:10152000F2122EC010927D0110927C010E94E40202
:101530001F8299E09983FA8291E09E8390EA9887CE
:101540009AEF998720917E0130917F01275F3F4F6D
:101550003C832B838D831092E90010927F011092BF
:101560007E0110937D0100937C0149E050E0BE01B3
:101570006F5F7F4F80E00E948C020E94E40279CF6F
:1015800010937D0100937C010E94D002DC01129631
:101590000D911C910115110509F451C1D801ED916E
:1015A000FC910480F581E02DBE016B5E7F4FC80188
:1015B0000995009709F03EC1F80100851185EACF31
:1015C000F3E0FF120EC08F89882309F440C08230F7
:1015D00061F440E860E186E192E00E9459028111E5
:1015E00048CF81E28093EB0047CF813029F440E877
:1015F0006BE08AE092E0F1CF833099F70E94D0024D
:10160000DC011296ED90FC908E010F5F1F4F680178
:10161000E114F10479F0D701ED91FC910680F78196
:10162000E02DB801C7010995080F111DF701E084ED
:10163000F184EECFD8011C92F60101900020E9F769
:101640003197BF016C197D0940E0C601C6CF64EF38
:1016500071E0FB01449150E080E80E948C0209CFC8
:10166000973009F4BECF983021F481E08093F100E7
:1016700000CF993009F0FDCE837009F0B2CFE1E0E0
:10168000F1E081E031E096E32191222371F0809333
:10169000E9003093EB00DF0111972C912093EC00CF
:1016A0009093ED008F5F873079F78EE78093EA00A3
:1016B0001092EA008F8980938D01DBCE8B8D9C8DFB
:1016C0001092E90010927F0110927E0190937D01AB
:1016D00080937C01898D811192C08E899D89913A78
:1016E00049F4813209F07DCF47E050E06BE071E0D2
:1016F00080E0B3CF913209F074CF833269F48F89DF
:10170000988DB0E0A0E08093070190930801A0932A
:101710000901B0930A01ADCE803269F48091E800EE
:1017200082FFFCCF67E08BE091E00E94C3028BEF69
:101730008093E8009ECE823209F09BCE8F89809301
:101740001201EEEFFFE7859194918B3F9C4D51F193
:10175000E0E0F8E080910B0190910C01A0910D0167
:10176000B0910E01803B9440A105B105F1F4809148
:10177000120180FD1AC0EE3F8AE0F80789F587E77D
:1017800097E791838083809160008093800188E156
:101790009BE00FB6F894A895809360000FBE9093DD
:1017A000600067CEEEEFFAE0D5CF80819181873778
:1017B000974709F05ECEA89580916000886180937C
:1017C00060008091800180936000EE3F2AE0F20784
:1017D00089F08091FE0A9091FF0A9183808349CE1F
:1017E000808191818737980751F29093FF0A809307
:1017F000FE0AC5CF1092FF0A1092FE0A3ACE0E944E
:10180000D002DC0112960D911C910115110509F40D
:10181000E8CED801ED91FC910190F081E02DBE0160
:101820006B5E7F4FC8010995811123CEF8010085B9
:101830001185EBCF181619060CF41BCED2CEF1E0B1
:10184000FF12BECE68EF71E004CF1F920F920FB669
:101850000F9211242F933F938F939F93AF93BF9336
:101860008091680190916901A0916A01B0916B012A
:101870003091670123E0230F2D3758F50196A11D04
:10188000B11D209367018093680190936901A09333
:101890006A01B0936B0180916C0190916D01A091F0
:1018A0006E01B0916F010196A11DB11D80936C0175
:1018B00090936D01A0936E01B0936F01BF91AF91B2
:1018C0009F918F913F912F910F900FBE0F901F907E
:1018D000189526E8230F0296A11DB11DD2CFCF92F5
:1018E000DF92EF92FF920F931F93CF93DF93CDB7C9
:1018F000DEB7C659D1090FB6F894DEBF0FBECDBF13
:10190000109291011092900188EE93E0A0E0B0E077
:101910008093920190939301A0939401B0939501C9
:1019200089E291E090938F0180938E018FEF9FEF7A
:1019300090939B0180939A011092F9011092F80103
:101940001092FC0110920102109200028FEF93E0BE
:1019500090930302809302021092050210920402F7
:1019600090930702809306021092090210920802D7
:1019700090930B0280930A0210920D0210920C02B7
:1019800090930F0280930E02109211021092100297
:101990009093130280931202109215021092140277
:1019A0009093170280931602109219021092180257
:1019B00090931B0280931A0210921D0210921C0237
:1019C00090931F0280931E02109221021092200217
:1019D00090932302809322021092250210922402F7
:1019E00090932702809326021092290210922802D7
:1019F00090932B0280932A0253E050932C0230E202
:101A00003093FB0122E02093FD018FE38093FE01E0
:101A10008FE18093FF0145E0498391E09A8389E05B
:101A20008B83F4E0FC83E1EAED839E8365E86F83BA
:101A3000588749878A8759E15B879C8759E25D8788
:101A40003E8715E11F87188AB5E2B98B9A8B65E747
:101A50006B8B9C8B55E95D8B3E8B35E53F8B188EF0
:101A6000A5E6A98F1A8E31E83B8F2C8F4D8F9E8F64
:101A70008F8F79E3C72EC8A219A31AA2BBA307E0D0
:101A8000D02EDCA275E37DA31EA206E4E02EEFA219
:101A90000BE3F02EF8A699A7AAA704E10BA76CA761
:101AA000FDA75EA79FA738AB29AB8AABCBAA1CAB1F
:101AB0001DAABEABDFAA78AF19AEEAAEFBAE9CAFF3
:101AC000ADAF0EAF6FAF2196FFAF219722965FAFFC
:101AD000229723969FAF239724963FAF249725966E
:101AE0002FAF259726968FAF269727969FAF2797DC
:101AF000F6E1FF2E2896FFAE289729969FAF2997EB
:101B000000E82A960FAF2A9716E22B961FAF2B9765
:101B1000BFEF2C96BFAF2C97AFE72D96AFAF2D97A9
:101B20002E966FAF2E97F0E12F96FFAF2F9760960E
:101B30005FAF60970F2EF6E0EF2EF02D6196EFAEBF
:101B400061976296EFAF629763961FAE6397649654
:101B50008FAF64970F2EF0E3EF2EF02D6596EFAE6A
:101B6000659766968FAF66970F2EF1E3EF2EF02DF7
:101B70006796EFAE679768968FAF68970F2EF2E380
:101B8000EF2EF02D6996EFAE69976A968FAF6A9740
:101B90000F2EF3E3EF2EF02D6B96EFAE6B976C9656
:101BA0008FAF6C970F2EF4E3EF2EF02D6D96EFAE06
:101BB0006D976E968FAF6E976F967FAF6F97A0966B
:101BC0003FAFA097A1962FAFA19770ECA2967FAFE1
:101BD000A297A3964FAFA397A4962FAFA497A596CD
:101BE000FFAEA597A6969FAFA697A7960FAFA7970C
:101BF000A8961FAFA897A996BFAFA997AA96AFAF0F
:101C0000AA97AB966FAFAB97AC96FFAFAC97AD967C
:101C10005FAFAD97AE964FAFAE97AF96EFAFAF97C2
:101C2000E0961FAEE097E1968FAFE1979AEBE296D0
:101C30009FAFE297E3968FAFE3979BEBE4969FAF5E
:101C4000E497E5968FAFE59794ECE6969FAFE6971D
:101C5000E7968FAFE79795ECE8969FAFE897E99600
:101C60008FAFE99788ECEA968FAFEA97EB963FAF94
:101C7000EB97EC962FAFEC97ED967FAFED97EE9646
:101C80007FAFEE978DE790E00E946A167C018DE7AA
:101C9000FE013196D70101900D928A95E1F787E018
:101CA00090E00E946A168C01DC0111961C921E9233
:101CB0001396FC92EE9212978DE790E015969C9306
:101CC0008E93149716961C920E940006FC01A38521
:101CD000B485109709F073C01487038785859685AE
:101CE000D80114962D913C91820F931F968785877A
:101CF0009091FB01892F869586958695977009F0BE
:101D000066C08093FC011091FC01812F90E00E943D
:101D10006A169093F9018093F80181E09091FD019A
:101D2000911101C080E01A5E810F80932D02109204
:101D3000DF011092DE011092E1011092E001109299
:101D4000E3011092E2011092E5011092E401109279
:101D5000E7011092E6011092E9011092E801109259
:101D6000EB011092EA011092ED011092EC01109239
:101D7000EF011092EE011092F1011092F001109219
:101D8000F3011092F2018FEF9FEF9093F501809392
:101D9000F4019093F7018093F60190E080E02091A8
:101DA000FC0128171906A9F0A4F0E091F801F091C0
:101DB000F901E80FF91F10820196F1CFDC018D9136
:101DC0009C9111970097D1F70D931C9387CF8F5F4C
:101DD00098CFCA56DF4F0FB6F894DEBF0FBECDBF07
:101DE000DF91CF911F910F91FF90EF90DF90CF90F7
:101DF0000895CF93DF93CDB7DEB762970FB6F8940F
:101E0000DEBF0FBECDBF789484B5826084BD84B53B
:101E1000816084BD85B5826085BD85B5816085BDE5
:101E200080916E00816080936E001092810080919D
:101E30008100826080938100809181008160809325
:101E4000810080918000816080938000809191006A
:101E500082608093910080919100816080939100D5
:101E6000809190008160809390008091C100846097
:101E70008093C1008091C10082608093C1008091F5
:101E8000C10081608093C1008091C3008160809314
:101E9000C3008091C00082608093C0008091C20026
:101EA00081608093C20080917A00846080937A0080
:101EB00080917A00826080937A0080917A008160BC
:101EC00080937A0080917A00806880937A001092E3
:101ED0008D0110928301109282018091D700816060
:101EE0008093D70080EA8093D80089B5806189BD4E
:101EF00089B5826089BD09B400FEFDCF61E070E064
:101F000080E090E00E9457048091D8008F7C80612F
:101F10008093D8008091E000807F8093E0008091E2
:101F2000E1008E7E8093E1008DE08093E200559A7F
:101F3000209A03E010E0C12C20E8D22E28EBE22EFC
:101F400023E4F22E812C912C37ECA32E33E4B32E14
:101F5000412C512C45ED642E43E4742E802F0E94B9
:101F6000D901F801E157FD4F8491F801E059FD4F87
:101F70002490F801EF5AFD4F3490332009F406C144
:101F800081110E949703E32DF0E0EE0FFF1FE95D42
:101F9000FD4FA591B491EC912E2209F4F7C00830C1
:101FA000110581F44092840150928501609286016E
:101FB0007092870180E090E4A1E2B4E4053011055D
:101FC000C9F4DBC00730110549F480928401909276
:101FD0008501A0928601B0928701ECCF06301105F1
:101FE00009F0BCC0C0928401D0928501E0928601C4
:101FF000F09287010F5F1F4F0930110509F0AECF36
:102000008FEF9FEF90939B0180939A0181E08093E3
:10201000FA010E94960664E070E080E090E00E9481
:10202000570480E0282E80E0382E64E070E080E0E5
:1020300090E00E9457044090880150908901609080
:102040008A0170908B01C0908401D0908501E0904E
:102050008601F090870162E070E080E090E00E94ED
:10206000570480E00E940E048C01A7019601C30171
:10207000B2010E9427152B013C01B801110F880BFA
:10208000990B0E947813A70196010E942715A301BE
:1020900092010E94941520E030E04EE753E40E9444
:1020A000D7136B017C0120E030E0A9010E9471137D
:1020B00087FF04C0F7FAF094F7F8F094C701B6016F
:1020C0000E9406164B011091FA0120E030E040E03A
:1020D0005FE3C301B2010E94D713A70196010E94DA
:1020E000711318160CF463C09092EB018092EA0110
:1020F00011110E949606B701A601CE0107960E9413
:10210000DE0867E371E0CE0101960E945409BE012A
:10211000695F7F4FCE0101960E94AA0863E471E0D7
:102120000E949408BC01CE010D960E946A09CE015E
:102130000D960E948D06CE010D960E946509CE0176
:1021400001960E946509CE0107960E946509211437
:10215000310409F46ACF0E94000067CF80E090E468
:10216000A5E1B4E40330110541F080E090E4ACE176
:10217000B4E40430110509F01DCF809388019093D9
:102180008901A0938A01B0938B0134CF80E090E065
:10219000A0E0B1E48093840190938501A09386012F
:1021A000B093870180E090E0A0EAB0E4E6CF90929F
:1021B000E1018092E00111110E949606B701A6018B
:1021C000CE0107960E94DE0865E471E09CCFEF9295
:1021D0000F931F93CF93DF93E80134E047FD34E181
:1021E000042E000C550B57FF03C051954195510922
:1021F000E32E022F242FAE010E942A11CE01DF917F
:10220000CF911F910F91EF900895BB274A3031F481
:10221000992322F4BDE2909581959F4F0C94111162
:10222000BB27FB015527AA27880F991FAA1FA417B0
:1022300010F0A41B83955051B9F7A05DAA3308F0A4
:10224000A95DA193009779F7B111B1931192CB01D8
:102250000C946113A9E0B0E0E0E3F1E10C94C51443
:102260006A01F22EB02E102FFBE3AF2EA01608F459
:102270001BE31F5F012F27E0AE014F5F5F4F0E94FE
:102280008912BC018981982F9970913009F43FC05F
:102290009BE2E1FC04C09E2D9170E0FC3AC05E2DF3
:1022A0005071E82FE87083FF46C084E0911101C0AF
:1022B00083E0EF2DE81B8F1508F0E0E0D6018E2FAC
:1022C00020E2552351F1992329F0D6019C93C601B0
:1022D00001966C0196012D5F3F4FE2FE24C08EE413
:1022E000D6018C9391E411969C93119712968C933E
:1022F000D9018E2F90E281111BC0E20FF32FF11D47
:1023000010828EEF9FEF2996ECE00C94E1149DE291
:10231000C6CF90E2C4CF2D9381508111FCCFCE0E59
:10232000D11CE0E0D0CF8EE6D6018C9391E6DBCFD6
:102330009D938150E0CF482F447082FF3DC084E0E0
:10234000911101C083E08F1510F4EF2DE81BD60129
:102350008E2F20E2552309F1992329F0D6019C9371
:10236000C60101966C0196012D5F3F4FE2FE1BC036
:1023700089E4D6018C938EE411968C93119786E4B0
:1023800012968C93D9018E2F90E2882309F4B5CF51
:102390009D938150FACF2D9381508111FCCFCE0EA9
:1023A000D11CE0E0D9CF89E6D6018C938EE6119658
:1023B0008C93119786E6E4CF9B0177FF02C030E053
:1023C00020E0A1E0B0E0911102C0B0E0A0E0F9018E
:1023D0003196AE0FBF1F8B2C912CBB2009F461C02E
:1023E0005401EFEFAE1ABE0AAA0DBB1DFA161B066A
:1023F00019F014F04F2D4A1B511188C0E3FC59C04D
:102400007601A42FB0E2A1114FC0C40ED11C9923B4
:1024100009F45BC040E0D6011196F60190836D018E
:10242000552309F448C0012F060F9A81582F507187
:1024300084FF03C0913309F4015010160CF047C01B
:10244000093008F008E0EEE2FE2E5B01A01AB108A8
:1024500085019194819491082F3F320729F4D60188
:10246000FC92F60131966F016217730794F102171F
:1024700013077CF5DB01A21BB30BAA24A394B12C98
:10248000AC0EBD1EAA0DBB1D11968C9121503109B9
:10249000D601119628153905F4F0F60180836D01F7
:1024A000DBCFB12CA12CA0CFF701B1937F01A150BC
:1024B000AACF9111B0CFD601942F50E302C05D9303
:1024C00091509111FCCFC40ED11C40E0ACCF01E083
:1024D000BACF80E3DBCF6217730731F4963388F409
:1024E000953311F4552369F0F6018083FD01842FA3
:1024F00090E2811108C0A40FB11D1C9290E080E011
:1025000002CF81E3F1CF91938150F3CF911183CF2B
:102510008ACF283008F027E03327DA01990F311DE0
:1025200087FD916000966105710539F432602E5F78
:102530003D9330E32A95E1F708959F3F30F08038CE
:102540007105610509F03C5F3C5F3D93913008F0F7
:102550008068911DDF93CF931F930F93FF92EF92AB
:10256000192F987F9695E92F96959695E90FFF2755
:10257000EA5FFE4F99273327EE24FF24A701E701E6
:1025800005900894079428F4360FE71EF81E491F9B
:10259000511D660F771F881F991F0694A1F705909C
:1025A000079428F4E70EF81E491F561FC11D770F28
:1025B000881F991F661F0694A1F70590079428F4B9
:1025C000F80E491F561FC71FD11D880F991F661F80
:1025D000771F0694A1F70590079420F4490F561F22
:1025E000C71FD81F990F661F771F881F0694A9F76A
:1025F00084911095177041F0D695C79557954795DA
:10260000F794E7941A95C1F7ECEAF0E06894159016
:10261000159135916591959105907FE27395E1183B
:10262000F10A430B560BC90BD009C0F7E10CF11EA0
:10263000431F561FC91FD01D7EF4703311F48A95B5
:10264000E6CFE894015030F0080F0AF40027021793
:1026500008F4202F2395022F7A3328F079E37D9315
:102660002A95E9F710C07D932A9589F606949795E7
:102670006795379517951794E118F10A430B560B98
:10268000C90BD00998F023957E9173957A3308F0A1
:1026900070E37C932013B8F77E9170617D9330F0E6
:1026A000839571E37D9370E32A95E1F71124EF9010
:1026B000FF900F911F91CF91DF91992787FD909502
:1026C0000895DC01FC01672F71917723E1F73297C0
:1026D00004C07C916D9370836291AE17BF07C8F3FD
:1026E00008950E94B31308F481E00895E89409C0A6
:1026F00097FB3EF490958095709561957F4F8F4F35
:102700009F4F9923A9F0F92F96E9BB279395F6954A
:10271000879577956795B795F111F8CFFAF4BB0FC8
:1027200011F460FF1BC06F5F7F4F8F4F9F4F16C02C
:10273000882311F096E911C0772321F09EE8872FB6
:10274000762F05C0662371F096E8862F70E060E072
:102750002AF09A95660F771F881FDAF7880F9695EB
:10276000879597F90895990F0008550FAA0BE0E88F
:10277000FEEF16161706E807F907C0F01216130643
:10278000E407F50798F0621B730B840B950B39F483
:102790000A2661F0232B242B252B21F408950A26E9
:1027A00009F4A140A6958FEF811D811D08950E9417
:1027B000EA130C945B140E944D1438F00E945414D8
:1027C00020F0952311F00C9444140C944A14112415
:1027D0000C948F140E946C1470F3959FC1F3950FA5
:1027E00050E0551F629FF001729FBB27F00DB11D95
:1027F000639FAA27F00DB11DAA1F649F6627B00D25
:10280000A11D661F829F2227B00DA11D621F739F0D
:10281000B00DA11D621F839FA00D611D221F749F1B
:102820003327A00D611D231F849F600D211D822F62
:10283000762F6A2F11249F5750409AF0F1F0882389
:102840004AF0EE0FFF1FBB1F661F771F881F9150B6
:102850005040A9F79E3F510580F00C9444140C940D
:102860008F145F3FE4F3983ED4F386957795679590
:10287000B795F795E7959F5FC1F7FE2B880F911DE0
:102880009695879597F9089597F99F6780E870E086
:1028900060E008959FEF80EC089500240A941616D6
:1028A000170618060906089500240A94121613063E
:1028B000140605060895092E0394000C11F48823CC
:1028C00052F0BB0F40F4BF2B11F460FF04C06F5FE8
:1028D0007F4F8F4F9F4F089557FD9058440F551FBE
:1028E00059F05F3F71F04795880F97FB991F61F092
:1028F0009F3F79F087950895121613061406551F09
:10290000F2CF4695F1DF08C0161617061806991F74
:10291000F1CF86957105610508940895E894BB2769
:1029200066277727CB0197F90895052E97FB1EF4AC
:1029300000940E94AC1457FD07D00E94F61407FCC7
:1029400003D04EF40C94AC145095409530952195DD
:102950003F4F4F4F5F4F08959095809570956195CB
:102960007F4F8F4F9F4F08950E941815A59F900D80
:10297000B49F900DA49F800D911D112408952F9256
:102980003F924F925F926F927F928F929F92AF92FF
:10299000BF92CF92DF92EF92FF920F931F93CF934C
:1029A000DF93CDB7DEB7CA1BDB0B0FB6F894DEBFE3
:1029B0000FBECDBF09942A88398848885F846E8409
:1029C0007D848C849B84AA84B984C884DF80EE8053
:1029D000FD800C811B81AA81B981CE0FD11D0FB65C
:1029E000F894DEBF0FBECDBFED010895A1E21A2E0F
:1029F000AA1BBB1BFD010DC0AA1FBB1FEE1FFF1FA3
:102A0000A217B307E407F50720F0A21BB30BE40BF2
:102A1000F50B661F771F881F991F1A9469F7609539
:102A20007095809590959B01AC01BD01CF010895F3
:102A3000A29FB001B39FC001A39F700D811D1124FF
:102A4000911DB29F700D811D1124911D0895505844
:102A5000BB27AA270E943F150C945B140E944D14BB
:102A600038F00E94541420F039F49F3F19F426F4F2
:102A70000C944A140EF4E095E7FB0C944414E92FEF
:102A80000E946C1458F3BA176207730784079507FE
:102A900020F079F4A6F50C948E140EF4E0950B2E2C
:102AA000BA2FA02D0B01B90190010C01CA01A001A0
:102AB0001124FF27591B99F0593F50F4503E68F1FB
:102AC0001A16F040A22F232F342F4427585FF3CF3C
:102AD000469537952795A795F0405395C9F77EF40D
:102AE0001F16BA0B620B730B840BBAF09150A1F056
:102AF000FF0FBB1F661F771F881FC2F70EC0BA0FDC
:102B0000621F731F841F48F4879577956795B79563
:102B1000F7959E3F08F0B0CF9395880F08F099275E
:102B2000EE0F9795879508950E94A8150C945B1455
:102B30000E94541458F00E944D1440F029F45F3F55
:102B400029F00C94441451110C948F140C944A14D1
:102B50000E946C1468F39923B1F3552391F3951BEC
:102B6000550BBB27AA2762177307840738F09F5FAE
:102B70005F4F220F331F441FAA1FA9F335D00E2E1B
:102B80003AF0E0E832D091505040E695001CCAF788
:102B90002BD0FE2F29D0660F771F881FBB1F26174B
:102BA00037074807AB07B0E809F0BB0B802DBF0122
:102BB000FF2793585F4F3AF09E3F510578F00C94F1
:102BC00044140C948F145F3FE4F3983ED4F386953D
:102BD00077956795B795F7959F5FC9F7880F911D12
:102BE0009695879597F90895E1E0660F771F881FFE
:102BF000BB1F621773078407BA0720F0621B730BB1
:102C0000840BBA0BEE1F88F7E09508950E940D160D
:102C10006894B1110C948F1408950E94741488F074
:102C20009F5798F0B92F9927B751B0F0E1F0660F90
:102C3000771F881F991F1AF0BA95C9F714C0B130D1
:102C400091F00E948E14B1E008950C948E14672FB9
:102C5000782F8827B85F39F0B93FCCF38695779500
:102C60006795B395D9F73EF49095809570956195E9
:102C70007F4F8F4F9F4F089597FB072E16F40094B8
:102C800007D077FD09D00E94561607FC05D03EF408
:102C9000909581959F4F0895709561957F4F089508
:102CA000EE0FFF1F0590F491E02D0994AA1BBB1BAA
:102CB00051E107C0AA1FBB1FA617B70710F0A61B3C
:102CC000B70B881F991F5A95A9F780959095BC015D
:102CD000CD0108950F931F93CF93DF938230910519
:102CE00010F482E090E0E0913002F091310230E0A7
:102CF00020E0B0E0A0E0309799F42115310509F407
:102D00004AC0281B390B24303105D8F58A819B81B4
:102D10006115710589F1FB0193838283FE0111C066
:102D2000408151810281138148175907E0F048170B
:102D3000590799F4109761F012960C931297139615
:102D40001C933296CF01DF91CF911F910F9108957F
:102D50000093300210933102F4CF2115310551F068
:102D60004217530738F0A901DB019A01BD01DF01C9
:102D7000F801C1CFEF01F9CF909331028093300277
:102D8000CDCFFE01E20FF31F8193919322503109C1
:102D900039832883D7CF20912E0230912F02232B05
:102DA00041F4209115013091160130932F022093A8
:102DB0002E0220911301309114012115310541F4A7
:102DC0002DB73EB74091170150911801241B350BC8
:102DD000E0912E02F0912F02E217F307A0F42E1BD0
:102DE0003F0B2817390778F0AC014E5F5F4F24176F
:102DF000350748F04E0F5F1F50932F0240932E026D
:102E0000819391939FCFF0E0E0E09CCFCF93DF934D
:102E10000097E9F0FC01329713821282A0913002F0
:102E2000B0913102ED0130E020E01097A1F4208153
:102E30003181820F931F20912E0230912F0228178B
:102E4000390709F061C0F0932F02E0932E02DF9161
:102E5000CF910895EA01CE17DF07E8F54A815B813B
:102E60009E0141155105B1F7E901FB83EA834991C0
:102E70005991C40FD51FEC17FD0761F48081918132
:102E80000296840F951FE90199838883828193813B
:102E90009B838A83F0E0E0E012968D919C911397DA
:102EA0000097B9F52D913C911197CD010296820FB3
:102EB000931F20912E0230912F022817390739F6DF
:102EC000309751F51092310210923002B0932F02D8
:102ED000A0932E02BCCFD383C28340815181840F43
:102EE000951FC817D90761F44E5F5F4F888199819C
:102EF000480F591F518340838A819B81938382832A
:102F00002115310509F0B0CFF0933102E093300282
:102F10009ECFFD01DC01C0CF13821282D7CFB0E07B
:102F2000A0E0E5E9F7E10C94C1148C01009751F49D
:102F3000CB010E946A168C01C801CDB7DEB7E0E173
:102F40000C94DD14FC01E60FF71F9C01225031099F
:102F5000E217F30708F49DC0D901CD91DC911197D8
:102F6000C617D70798F0C530D10530F3CE010497C6
:102F70008617970708F3C61BD70B2297C193D193E7
:102F80006D937C93CF010E940617D6CF5B01AC1ADC
:102F9000BD0A4C018C0E9D1EA0913002B0913102F1
:102FA000512C412CF12CE12C109731F580912E02FF
:102FB00090912F028815990509F05CC046165706B6
:102FC00008F058C08091130190911401009741F4CA
:102FD0008DB79EB74091170150911801841B950B36
:102FE000E817F90708F055C0F0932F02E0932E027E
:102FF000F90171836083A0CF8D919C9111971296F6
:103000006C90129713967C901397A815B90559F5F3
:103010006C0142E0C40ED11CCA14DB0420F1AC01E7
:103020004A195B09DA011296159780F06282738261
:1030300051834083D9016D937C93E114F10471F0C5
:10304000D7011396FC93EE93129776CF22968C0FAE
:103050009D1FF90191838083F301EFCFF09331023B
:10306000E093300269CF4816590608F42C017D011F
:10307000D3019ACFCB010E946A167C01009749F0D8
:10308000AE01B8010E944C18C8010E9406178701C2
:1030900053CF10E000E050CFFB01DC0102C00190F3
:1030A0000D9241505040D8F70895FB01DC0101908A
:0C30B0000D920020E1F70895F894FFCF86
:1030BC0000C18081000000FFFFFFFF00E100000065
:1030CC00000000000032028000000000003905B54D
:1030DC000577055C05000000001503230536032B5E
:1030EC00037D033B0359035468726F74746C652041
:0E30FC003D20000A004272616B65203D2000FD
:2070000055C000006EC000006CC000006AC0000068C0000066C0000064C0000062C0000043
:2070200060C000005EC00000F2C400005AC0000058C0000056C0000054C0000052C00000EE
:2070400050C0000078C000004CC000004AC0000048C0000046C0000044C0000042C00000BE
:2070600040C000003EC000003CC000003AC0000038C0000036C0000034C0000032C0000048
:2070800030C000002EC000002CC000002AC0000028C0000026C0000024C0000022C00000A8
:2070A00020C000001EC000001CC0000011241FBECFEFDAE0DEBFCDBF11E0A0E0B1E0E2E3BC
:2070C000FFE702C005900D92A83AB107D9F711E0A8EAB1E001C01D92AE3BB107E1F78FD30B
:2070E00026C78ECFF89410926F0010928100109285001092840081E085BF15BE47985D9AEB
:20710000289A0C94000008952091B2013091B3012F5F3F4F3093B3012093B201932F37FFA6
:2071200003C08EEF831B982F990F921710F447980895479A08951F920F920FB60F9211246E
:207140002F938F939F93EF93FF9310928500109284008091A8019091A901009741F00197D3
:207160009093A9018093A801892B09F45D9A8091AA019091AB01009741F001979093AB0126
:207180008093AA01892B09F4289AE0E0F0E0859194918F5F9F4F49F08091AC019091AD0151
:2071A00001969093AD018093AC01FF91EF919F918F912F910F900FBE0F901F90189584E0BC
:2071C0008093E9000DC08091E8008B778093E80003C08EB3882351F08091E80082FFF9CFBE
:2071E0008091E80085FFEFCF8091F1000895982F83E08093E9008091E80085FD0DC0809136
:20720000E8008E778093E80003C08EB3882369F08091E80080FFF9CF9093F1005D9884E6CB
:2072200090E09093A9018093A80108954F925F926F927F928F929F92AF92BF92CF92DF921E
:20724000EF92FF920F931F93CF93DF9384E08093E9008091E80082FF57C2289884E690E067
:207260009093AB018093AA01AADF182F853481F48CE49DE19093AD018093AC0107B600FC4B
:20728000FDCFF999FECF81E180935700E89503C0843519F494DF8DE00DC28C34E1F38035F9
:2072A000D1F3843721F484E4A2DF80E003C2813611F489E5FFC18134B1F481DF182F7FDFE3
:2072C00090E0880F991FAA2797FDA095BA2F312F330F20E0442737FD4095542F822B932B68
:2072E000A42BB52BB8C1803711F483E5E3C1833549F4C0E0D1E089917ADF21E0C730D20714
:20730000D1F7D9C1863521F481E371DF80E3D2C1833731F487E86BDF85E969DF8EE1CAC149
:207320008536B9F4E0E0F0E093E085E090935700E89507B600FCFDCF80935700E89507B65D
:2073400000FCFDCFE058FF4FA0E7E030FA0771F7A2CF823739F4E1E0F0E089E08093570024
:207360008491A8C1863439F4E0E0F0E089E08093570084919FC18E3439F4E3E0F0E089E0E5
:2073800080935700849196C1813539F4E2E0F0E089E08093570084918DC1823631F489E521
:2073A00026DF80E024DF80E885C1823419F0873609F0E5C01092AD011092AC0100DF082FE8
:2073C000FEDEF82EFCDE682E8554823008F071C1902F80E0CF2DD0E0C82BD92B10926F00B3
:2073E000173609F04BC081E180935700E895DD24CC24C3943FC0E090AE01F090AF010091CC
:20740000B0011091B101B6E46B16D9F4ED2DF0E0EE29FF29E4918E2FEADEDD2081F082E08D
:2074200090E0A0E0B0E0E80EF91E0A1F1B1FE092AE01F092AF010093B0011093B101DC2470
:2074400018C0D801C701B695A7959795879559D5CEDE82E090E0A0E0B0E0E80EF91E0A1FF2
:207460001B1FE092AE01F092AF010093B0011093B1012197209709F0BECF7DC08090AE01F5
:207480009090AF01A090B001B090B10196E4691609F05DC083E0F40180935700E89507B63E
:2074A00000FCFDCF54C0F6E46F1661F5772031F1E090AE01F090AF010091B0011091B1019E
:2074C0007EDED82ECC24852D90E08C299D29F7010C0140925700E895112482E090E0A0E08B
:2074E000B0E0E80EF91E0A1F1B1FE092AE01F092AF010093B0011093B10102C060DE582E1A
:20750000742423C0E090AE01F090AF010091B0011091B10116950795F794E79450DE682FFA
:20752000C701F7D48091AE019091AF01A091B001B091B1010296A11DB11D8093AE01909349
:20754000AF01A093B001B093B101219704C05524772444244394209709F0A5CF96E46916B6
:2075600041F485E0F40180935700E89507B600FCFDCF8DE03CDE82E080936F009CC0833492
:2075800071F40091AE011091AF0119DE90E021E0F8010C0120935700E89511247CCE8336C8
:2075A00019F5E090AE01F090AF010091B0011091B10105DEF701E16090E021E00C0120938C
:2075C0005700E895112482E090E0A0E0B0E0E80EF91E0A1F1B1FE092AE01F092AF0100936A
:2075E000B0011093B10157CE8D3661F4E091AE01F091AF0185E080935700E89507B600FCF2
:20760000FDCF49CE823551F4E091AE01F091AF0105911491812FEBDD802F4CC0843421F5FE
:20762000E090AE01F090AF010091B0011091B10116950795F794E794C2DD682FC70169D4DE
:207640008091AE019091AF01A091B001B091B1010296A11DB11D8093AE019093AF01A093D8
:20766000B001B093B10117CE843609F5E090AE01F090AF010091B0011091B101D801C70142
:20768000B695A795979587953CD4B1DD82E090E0A0E0B0E0E80EF91E0A1F1B1FE092AE010A
:2076A000F092AF010093B0011093B10104C08B3111F08FE39CDD83E08093E9009091E8002B
:2076C0008091E8008E778093E80095FF04C010C08EB38823C9F08091E80080FFF9CF809193
:2076E000E8008E778093E80003C08EB3882361F08091E80080FFF9CF84E08093E9008091F1
:20770000E8008B778093E800DF91CF911F910F91FF90EF90DF90CF90BF90AF909F908F90AC
:207720007F906F905F904F9008959091B601892F8F77813249F58091B7018032A1F081328A
:2077400019F5913A09F58091E800877F8093E8008DE091E067E070E00BD28091E8008B770B
:207760008093E8000895913279F48091E800877F8093E8008DE091E067E070E05DD2809192
:20778000E8008E778093E800089582E061EC42E0B5D083E061E842E1B1D084E060E842E1EF
:2077A000ADC084B7877F84BF88E10FB6F89480936000109260000FBE20E880E090E00FB63F
:2077C000F89420936100809361000FBE81E085BF92E095BF3F9A209A559AE1E6F0E02083A1
:2077E000108247985D9A289A109289008AEF8093880090936F0083E080938100F0C0409116
:20780000000850910108109201081092000894B714BE88E10FB6F8948093600010926000D5
:207820000FBE292F30E0F901E270F07091FD18C090FF05C0859194918F5F9F4F81F423FFFF
:207840000FC08091090190910A014817590741F0E0E0F0E0859194918F5F9F4F09F042DC64
:20786000A0DF78941092AD011092AC010CC0DEDC36D38091AC019091AD0181549F4110F00D
:207880001092140141DC80911401882381F78091E00081608093E00025DC80E090E0089598
:2078A000FA01923049F0933061F09130F9F485E191E022E130E01EC087E291E02EE330E04D
:2078C00019C0882329F485E691E024E030E012C0813029F489E691E022E230E00BC0823006
:2078E00029F48DE891E028E130E004C080E090E020E030E091838083C90108958093E9004E
:207900008091EB0081608093EB001092ED006093EC004093ED008091EE00881F8827881F62
:2079200008958091B60188238CF403C08EB38823B1F08091E80082FFF9CF8091E8008B772A
:207940008093E80008958EB3882349F08091E80080FFF9CF8091E8008E778093E800089594
:20796000EF92FF920F931F9345D04CD008ED10E0F80180818F77808380818068808380819B
:207980008F7D808319BC1EBA1092B40180EEE82EF12CF70180818B7F8083F8018081816052
:2079A000808380E060E042E0A9DFE1EEF0E080818E7F8083E2EEF0E0808181608083808144
:2079C00088608083F70180818E7F8083F8018081806180831F910F91FF90EF900895E7ED06
:2079E000F0E08081816080838AE482BF81E08093B501B6CFE8EDF0E080818E7F808310921C
:207A0000E20008951092DA001092E10008951F920F920FB60F9211242F933F934F935F93F6
:207A20006F937F938F939F93AF93BF93EF93FF938091DA0080FF1BC08091D80080FF17C0B2
:207A40008091DA008E7F8093DA008091D90080FF0BC080E189BD82E189BD09B400FEFDCF36
:207A600081E08EBB3BD203C019BC1EBA37D28091E10080FF17C08091E20080FF13C0809138
:207A8000E2008E7F8093E2008091E20080618093E2008091D80080628093D80019BC85E049
:207AA0008EBB1CD28091E10084FF2CC08091E20084FF28C080E189BD82E189BD09B400FEC5
:207AC000FDCF8091D8008F7D8093D8008091E1008F7E8093E1008091E2008F7E8093E20012
:207AE0008091E20081608093E2008091B401882331F48091E30087FD02C081E001C084E067
:207B00008EBBECD18091E10083FF21C08091E20083FF1DC08091E100877F8093E10082E06A
:207B20008EBB1092B4018091E1008E7F8093E1008091E2008E7F8093E2008091E2008061E9
:207B40008093E20080E060E042E0D8DEC7D1FF91EF91BF91AF919F918F917F916F915F9130
:207B60004F913F912F910F900FBE0F901F9018959C014091BC015091BD014617570718F49D
:207B8000F90190E044C06115710511F0AB01F8CF8091E8008E778093E80040E050E0F0CF0F
:207BA0008EB3882309F444C0853009F443C08091E80083FF02C081E008958091E80082FD70
:207BC00031C08091E80080FF22C08091F3009091F200782F60E0292F30E0262B372B07C07A
:207BE00081918093F100415050402F5F3F4F4115510519F02830310598F390E02830310566
:207C000009F491E08091E8008E778093E8004115510531F6992321F605C08EB3882341F075
:207C2000853041F08091E80082FFF7CF80E0089582E0089583E008959C016115710529F47C
:207C40008091E8008B778093E800F90126C08EB3882391F1853091F18091E80083FF02C06C
:207C600081E008958091E80082FFF1CF06C08091F10081936150704059F02091F300809191
:207C8000F200322F20E090E0822B932B892B79F78091E8008B778093E80061157105B9F601
:207CA00005C08EB3882341F0853041F08091E80080FFF7CF80E0089582E0089583E00895C2
:207CC0000F931F93DF93CF9300D0CDB7DEB7E6EBF1E08091F100819381E0EE3BF807C9F792
:207CE00024DD8091E80083FFE4C08091B6019091B701953009F46DC0963040F4913081F1A7
:207D0000913070F0933009F0D4C02AC0983009F4A3C0993009F4B2C0963009F0CAC07CC023
:207D2000803809F4C6C0823809F0C3C08091BA0187708093E9008091EB001092E9002091DB
:207D4000E800277F2093E80090E025E0969587952A95E1F781708093F1001092F10087C0D8
:207D6000882319F0823009F0A4C08F71823009F0A0C08091B801882331F52091BA01277097
:207D800009F497C02093E9008091EB0080FF1BC0933021F48091EB00806213C08091EB0018
:207DA00080618093EB0081E090E002C0880F991F2A95E2F78093EA001092EA008091EB00E5
:207DC00088608093EB001092E9008091E800877F51C0882309F06DC01091B8011F770FB79B
:207DE000F8948091E800877F8093E8009ADD8091E80080FFFCCF8091E3008078812B809398
:207E0000E30080688093E300112311F482E001C083E08EBB0FBF4DC08058823008F049C033
:207E20008091B8019091B9016091BA01AE014F5F5F4F36DDBC01009709F43BC08091E8008E
:207E4000877F8093E80089819A8192DE8091E8008B778093E8002DC0803859F58091E800AA
:207E6000877F8093E8008091B4018093F1008091E8008E778093E80054DD1BC08823C9F4CA
:207E80009091B8019230A8F48091E800877F8093E8009093B40145DD8091B401882331F420
:207EA0008091E30087FD02C081E001C084E08EBB6CDC8091E80083FF0AC08091EB0080624E
:207EC0008093EB008091E800877F8093E8000F900F90CF91DF911F910F91089508951F9360
:207EE0008EB3882361F01091E9001092E9008091E80083FF01C0E4DE17701093E9001F916F
:207F00000895F999FECF92BD81BDF89A992780B50895262FF999FECF1FBA92BD81BD20BDBD
:207F20000FB6F894FA9AF99A0FBE01960895F894FFCF4341544552494E4100777700080031
:207F40000000000000080112011001020000084123360001000201000109023E00020100FF
:207F600080320904000001020201000524001001042402040524060001070582030800FF0C
:207F800009040100020A000000070504021000010705830210000104030904220341007216
:207FA000006400750069006E006F0020004C0065006F006E006100720064006F0000001836
:1A7FC00003410072006400750069006E006F0020004C004C004300000000D7
:00000001FF
